:020000040800F2
:1000000038090020890100082F200008151C00086D
:100010002D200008F503000843240008000000001C
:100020000000000000000000000000008121000826
:100030002F040008000000007D2100088321000833
:10004000A3010008A3010008A3010008A301000800
:10005000A30100087F210008A3010008A3010008F4
:10006000A3010008A3010008A3010008F903000888
:10007000A3010008A3010008A3010008A3010008D0
:10008000A3010008A3010008A3010008A3010008C0
:10009000A3010008A3010008A30100083904000817
:1000A000A3010008A3010008A3010008A3010008A0
:1000B00001220008A3010008A3010008A301000811
:1000C000A3010008A3010008A3010008A301000880
:1000D000A3010008A3010008A3010008A301000870
:1000E00031040008A3010008A301000800F002F891
:1000F00000F03AF80AA090E8000C82448344AAF188
:100100000107DA4501D100F02FF8AFF2090EBAE885
:100110000F0013F0010F18BFFB1A43F0010318473B
:10012000F0490000104A0000103A24BF78C878C196
:10013000FAD8520724BF30C830C144BF04680C60ED
:10014000704700000023002400250026103A28BF35
:1001500078C1FBD8520728BF30C148BF0B60704739
:100160001FB51FBD10B510BD00F06CF81146FFF7AC
:10017000F7FF02F071FA00F08AF803B4FFF7F2FF1C
:1001800003BC00F08DF8000009488047094800478B
:10019000FEE7FEE7FEE7FEE7FEE7FEE7FEE7FEE737
:1001A000FEE7FEE704480549054A064B7047000094
:1001B000FF210008ED000008380300203809002066
:1001C00038050020380500204FF0000200B5134626
:1001D00094469646203922BFA0E80C50A0E80C5067
:1001E000B1F12001BFF4F7AF090728BFA0E80C5018
:1001F00048BF0CC05DF804EB890028BF40F8042B11
:1002000008BF704748BF20F8022B11F0804F18BF7D
:1002100000F8012B704770477047704710B500F029
:1002200009F8006810BD10B5044600F003F804603A
:1002300010BD000000487047D802002000487047F9
:10024000D80200207546FFF7F9FFAE460500694663
:10025000534620F00700854618B020B5FFF7A2FFEF
:10026000BDE820404FF000064FF000074FF00008B7
:100270004FF0000B21F00701AC46ACE8C009ACE838
:10028000C009ACE8C009ACE8C0098D46704710B59C
:100290000446AFF300802046BDE81040FFF76DBF75
:1002A00001491820ABBEFEE726000200704700009F
:1002B00070B5044600688168C943C90717D18168D1
:1002C00021F00101816000F013FD05460AE000BF46
:1002D00000F00EFD401B022804D920688068C0434E
:1002E000C00706D020688068C043C007F0D0002057
:1002F00070BDA06A40F01000A062E06A40F001000A
:10030000E062012070BD10B50146406A826A12F0B9
:10031000500F05D0006A026BBDE810400846104738
:10032000816A41F40071816201688968C1F34241C8
:1003300007290CD1017B51B9816A21F48071816256
:10034000816AC90403D4816A41F00101816200F02D
:10035000F7F810BD10B5406A816A41F04001816232
:10036000C16A41F00401C16200F0ECF810BD10B5A3
:10037000406A00F0E6F810BDF8B500260446009685
:1003800000688168C943C9072DD0816841F0010127
:100390008160164816490068B0FBF1F000E0401E8D
:1003A00000900028FBD100F0A3FC054616E000BF3A
:1003B00000F09EFC401B022810D920688068C043D2
:1003C000C0070BD0A06A40F01000A062E06A40F0C5
:1003D0000100E06284F824600120F8BD2068806894
:1003E000C043C007E4D10020F8BD00000C0100208C
:1003F00040420F00FEE70000014800F011BA000083
:100400009402002030B590F840500124AC40C56BF8
:100410006C60046863604368102B036803D09960C4
:100420000068C26030BD9A600068C16030BD70472E
:100430004FF4804000F04EBB402000F04BBB72B642
:10044000FEE70000F8B50024009490F8242025462B
:10045000012A12D0012280F824204A681F23072A8B
:100460000DD20668776B521E02EB820293409F43C7
:100470000B6893401F43776319E00220F8BD0668BC
:100480000D2A0AD2376BD21F02EB820293409F43A0
:100490000B6893401F43376309E0F76A0D3A02EB9C
:1004A000820293409F430B6893401F43F7620A68A0
:1004B000072306680A2A0AD3F7680A3A02EB4202BF
:1004C00093409F438B6893401F43F76008E0376970
:1004D00002EB420293409F438B6893401F43376176
:1004E0000A68102A01D0112A20D1124B02689A42C0
:1004F00017D193681B0219D4936843F400039360E7
:100500000968102912D10C490C4A0968B1FBF2F1B3
:1005100001EB8101490000E0491E00910029FBD157
:1005200004E0816A41F020018162012480F82450B6
:100530002046F8BD002401400C01002040420F007D
:1005400070477047704700002DE9F0414FF00007F9
:1005500004003D467ED0A06A002628B9E66284F8F1
:100560002460204600F07EF82046FFF7A1FEA16A35
:10057000C90600D420B1A06A40F01000A06269E072
:10058000A16A21F4885141F00201A1626268E16927
:10059000237B0A4347EA43010A43A1684FF480776B
:1005A000B94209D0012907D05FF0000194F814C0C6
:1005B000BCF1010F02D00AE03946F7E7F3B1A36AB4
:1005C00043F02003A362E36A43F00103E36223687C
:1005D000D3F804C02CF4694C4CEA010CC3F804C0F5
:1005E00021688B68DFF870C003EA0C0313438B604B
:1005F000A168B9420BD0012909D00CE0DFF85CC03A
:10060000A3690CEB43330B4343F40061DFE7218A1A
:100610000D05A5F580152168CB6A23F470032B43E3
:10062000CB62216889680E4B1940914208D1E6627D
:10063000A16A21F0020141F00101A162BDE8F0814F
:10064000A06A20F0020040F01000A062E06A40F0D2
:100650000100E0620120F1E7FDF7E1FF00E0FFFFAC
:10066000FE0E1FFF70B586B0002506460095019569
:10067000029503950068214988423DD12049886947
:1006800040F400708861886900F400700490886903
:1006900040F004008861886900F0040004908869D3
:1006A00040F0080088618869032400F00800049085
:1006B0003C20CDE900046946124800F017FA0120F9
:1006C000CDE900046946104800F010FA104C0F48BC
:1006D000C4E900058020C4E9025040002061800088
:1006E00060612020C4E90605204600F043F908B106
:1006F000FFF7A5FE3462666206B070BD00240140BB
:100700000010024000080140000C014008000240B7
:10071000940200202DE9F047894604463B490068D1
:100720003B4F0E1D9046884201D0B84207D1306839
:1007300010F4702F03D001252846BDE8F08794F807
:10074000240001280CD0012084F824002046FFF763
:1007500013FE05004FF0000004D084F82400EBE7FE
:100760000220EAE7A16A40F60162914341F48071F8
:10077000A1622168B94218D1326812F4702F14D0E6
:10078000A16A41F48011A1623168490505D5A16AC9
:1007900021F4005141F48051A162A16AC9040AD533
:1007A000E16A21F00601E16206E0A26A22F4801209
:1007B000A2624968E9E7E06284F82400216A1548EA
:1007C0008862216A1448C862216A14480863216853
:1007D0006FF0020008602068816841F480718160D8
:1007E000216843464A464C31206A00F0F1F82068FF
:1007F0008168C1F342410729816803D041F4801127
:10080000816099E741F4A001FAE70000002401406B
:1008100000280140070300086F0300085503000883
:100820002DE9F05FC16B0C6801680B68D0F840C01F
:10083000042202FA0CF2494DDFF824A1494E4A4F36
:10084000DFF828B1DFF828E122422CD05A072AD558
:100850000A68920603D40A6822F004020A6001685A
:10086000A94201D1042219E0514501D1402215E0ED
:10087000B14202D14FF4806210E0B94202D14FF48C
:1008800080420BE0594502D14FF4802206E07145C9
:1008900002D14FF4800201E04FF080622F49083905
:1008A0004A60C16A3BE04FF0020808FA0CF818EA07
:1008B000040F4FF000094FF0010235D05FEA837852
:1008C00032D50B689B0605D40B6823F00A030B6036
:1008D00080F821200168A94201D1022219E0514586
:1008E00001D1202215E0B14202D14FF4007210E094
:1008F000B94202D14FF400520BE0594502D14FF4F6
:10090000003206E0714502D14FF4001201E04FF0D1
:100910000072124908394A6080F82090816A0029E3
:100920001AD0BDE8F05F0847082505FA0CF5254206
:1009300012D01B0710D50B6823F00E030B6090F844
:100940004010C36B02FA01F15960826380F82120E4
:1009500080F82090016BE2E7BDE8F09F08000240BC
:100960001C00024030000240440002405800024097
:100970006C00024030B528B308C81349142219444A
:10098000B1FBF2F18900C163104981630221417713
:100990001A6843F6F0718A43D0E900142143D0E984
:1009A00002452C432143046921434469214384695E
:1009B00021431143196000214163012242770177ED
:1009C000084630BD012030BDF8FFFDBF00000240E9
:1009D00070B5044690F82000002501280CD00120B5
:1009E00084F8200094F821600020012E06D084F8BD
:1009F00020000225284670BD022070BD022684F822
:100A00002160A0632068066826F001060660204683
:100A1000FFF7F8FCE06A00282068016802D041F086
:100A20000E0106E021F0040101602068016841F038
:100A30000A0101602068016841F001010160D9E705
:100A400070B5044600F054F90546601C02D0044815
:100A50000078044400F04CF9401BA042FAD370BD6A
:100A6000000100202DE9F0414FF48044A04217D14D
:100A7000144F2146384600F029F9134D134E012832
:100A80000AD02146384600F021F9002802D1286812
:100A9000406A7080BDE8F0812868406A3080F9E7DC
:100AA0004028F7D1094C80218034A069401CA06106
:100AB000074800F00BF9012801D04FF0FF306062C9
:100AC000E8E70000000C01401802002000000020B0
:100AD00000080140044910B50A68024202D00860CB
:100AE000FFF7C0FF10BD0000140401402DE9F84FCE
:100AF000DFF8B891002409F1040A0AF1040B234637
:100B00000F270BF1040EC9E00125A5402A40AA4297
:100B10007DD1674ED1F804C0ACEB0608B44532D0A5
:100B200014DCBCF1030F3AD009DCBCF1000F2AD071
:100B3000BCF1010F1CD0BCF1020F31D11DE0BCF1A2
:100B4000110F17D0BCF1120F2AD119E0B8F5881F88
:100B500019D006DCB8F5803F15D0B8F5801F1FD13D
:100B600011E0B8F5001F0ED0B8F5041F18D10AE047
:100B7000CB6815E0CB681B1D12E0CB6808330FE093
:100B8000CB680C330CE08B682BB1012B4FF00803C2
:100B900003D0456104E0042302E0056100E0002386
:100BA000FF2A01D8064601E000F104064FEA840559
:100BB00001D9A5F12005D6F8008007FA05FC28EA3E
:100BC0000C0803FA05F548EA0508C6F800804D68E8
:100BD000ED0062D5374DAE6946F00106AE61AD69F4
:100BE00024F0030605F001050095334D06EB050CD6
:100BF000DCF80850A607360F07FA06F825EA0805BC
:100C0000DFF8B880404503D14FF0000817E044E01A
:100C1000DFF8AC80404502D14FF001080FE0DFF86B
:100C2000A480404502D14FF0020808E0DFF8988028
:100C3000404502D14FF0030801E04FF0040808FAE4
:100C400006F848EA0508CCF808804D68D9F8006035
:100C5000ED034D4601D5164300E096432E604D68E6
:100C6000DAF80060AD03554601D5164300E096431F
:100C70002E604D68DBF80060ED025D4601D516433D
:100C800000E096432E604D68DEF80060AD027546C8
:100C900001D5164300E096432E60641C0D682A4679
:100CA000E5407FF431AFBDE8F88F0000000401405B
:100CB0000000111000100240000001400008014037
:100CC000000C014000100140001401408068084001
:100CD00000D001207047C26821EA02030A4043EABB
:100CE0000241016170470AB1016170470904FBE7E5
:100CF00001488068704700000001002002488168B8
:100D0000027811448160704700010020074810B547
:100D1000016841F010010160032000F085F80F2008
:100D200000F006F800F024F8002010BD002002407A
:100D300070B50D4D04464FF47A712878B1FBF0F090
:100D40000A490968B1FBF0F000F052FB48B9102CD9
:100D500007D200222146501E00F046F800206C60A9
:100D600070BD012070BD0000000100200C010020BA
:100D7000144808B5816941F001018161816901F080
:100D800001010091C16941F08051C161C069002237
:100D900000F0805000901146052000F025F8052055
:100DA00000F014F800221146052000F01DF805207F
:100DB00000F00CF80448416821F0E06141F0007156
:100DC000416008BD0010024000000140002809DB1E
:100DD00000F01F02012191404009800000F1E02055
:100DE000C0F8001170470000F0B40E4B1B680C46B1
:100DF000C3F30223C3F10705042D00D90425191DEF
:100E0000072901D2002300E0DB1E012606FA05F1C6
:100E1000491E214099409E40761E16403143F0BC49
:100E200001F024BB0CED00E0064900F00702086861
:100E30004FF6FF03184040EA0220034A10430860BF
:100E4000704700000CED00E00000FA052DE9F843C2
:100E500005460078354CC00754D0E0690026C00034
:100E600008D4E06940F08050E061E069012600F0BC
:100E7000805000902E480168C90512D40168804650
:100E800041F480710160FFF733FF074605E000BFC2
:100E9000FFF72EFFC01B642823D8D8F80000C00538
:100EA000F6D5206A10F4407021D0A98801F4407171
:100EB00081421CD0206A1F49012220F440700A6040
:100EC00000220A602062C00711D0FFF711FF074619
:100ED00041F2883808E000BFFFF70AFFC11B414517
:100EE00002D90320BDE8F883206A8007F4D5206A80
:100EF000696820F44070084320621EB1E06920F068
:100F00008050E0612878800705D56068A96820F4E2
:100F10004040084360602878C00605D56068E968ED
:100F200020F48000084360600020DBE700100240EE
:100F300000700040400442422DE9F0470F46050092
:100F400061D0434E306800F00700B84209D23068E3
:100F500020F0070038433060306800F00700B842E6
:100F600051D128683B4C810712D5400703D56068F2
:100F700040F4E06060602878000703D5606840F4C2
:100F8000605060606068A96820F0F000084360600D
:100F90002878C00728D06868012810D02168022866
:100FA00010D0890700292EDA616821F0030101437E
:100FB0006160FFF79DFE804641F288390DE02168AF
:100FC0008903EFE78901EDE7FFF792FEA0EB080147
:100FD000494502D90320BDE8F0876068696800F0E0
:100FE0000C00B0EB810FEFD1306800F00700B84281
:100FF0000BD9306820F0070038433060306800F0CB
:101000000700B84201D00120E5E72878400705D560
:101010006068E96820F4E0600843606028780007B1
:1010200006D56068296920F4605040EAC10060601C
:1010300000F018F86168084AC1F30311515CC84018
:101040000649086006480068FFF772FE0020C2E704
:1010500000200240001002406E4A00080C010020EF
:101060000401002012A185B00FC98DE80F0014A063
:10107000144A006804905168134801F00C03042BD3
:1010800010D0082B0ED1C1F38343C9031DF8030010
:101090000AD5516804AAC1F34041515C0A4A504341
:1010A000B0FBF1F005B0704708494843FAE700008B
:1010B00002030405060708090A0B0C0D0E0F101099
:1010C000010200000010024000127A0000093D00F9
:1010D0002DE9F84F040070D02078C04DC00749D0EA
:1010E0006868C0F38100012807D06868C0F38100F8
:1010F000022809D16868C00306D52868800339D55D
:1011000060680028E7D035E06068B0F5803F0BD01C
:1011100010B1B0F5A02F11D0286820F480302860DD
:10112000286820F4802002E0286840F4803028609D
:10113000606890B1FFF7DCFD06460AE0286840F4DD
:1011400080202860F0E700BFFFF7D2FD801B6428F5
:1011500073D828688003F7D50CE0FFF7C9FD064671
:1011600005E000BFFFF7C4FD801B6428F0D82868A5
:101170008003F7D420789A4E80074FF001094FF092
:10118000000839D5686810F00C0F07D06868C0F304
:101190008100022809D16868C00306D42868800746
:1011A00014D52069012808D110E02069B0B1C6F833
:1011B0000090FFF79DFD074605E00AE1FFF798FD67
:1011C000C01B0228C4D828688007F7D52868616941
:1011D00020F0F80040EAC10028600DE0C6F8008069
:1011E000FFF786FD074604E0FFF782FDC01B0228DB
:1011F00023D828688007F7D4207800072CD57948B1
:10120000A169D9B1C0F80090FFF772FD074604E06C
:10121000FFF76EFDC01B02280FD8686A8007F7D55C
:1012200071484FF4FA510068B0FBF1F0009000BF34
:101230000098411E0091FAD20EE080E0C0F80080D4
:10124000FFF756FD074604E0FFF752FDC01B0228DA
:1012500075D8686A8007F7D42078400760D5E869B8
:101260000027C00008D4E86940F08050E861E869D0
:10127000012700F0805000905C480168C90513D434
:101280000168834641F480710160FFF731FD8246B9
:1012900006E000BFFFF72CFDA0EB0A0064284ED843
:1012A000DBF80000C005F5D5E06801280AD008B1D8
:1012B000052813D0286A20F001002862286A20F04F
:1012C000040002E0286A40F001002862E06841F270
:1012D000883B98B1FFF70CFD82460BE0286A40F08E
:1012E00004002862EEE700BFFFF702FDA0EB0A0151
:1012F00059455AD8286A8007F6D50CE0FFF7F8FC64
:10130000824605E0FFF7F4FCA0EB0A0159454CD8F2
:10131000286A8007F6D41FB1E86920F08050E861A0
:10132000E06988B36968C1F38101022944D00228C9
:10133000C6F8608004D0FFF7DBFC044638E034E0F8
:10134000FFF7D6FC074604E0FFF7D2FCC01B0228DB
:101350002BD828688001F7D4206AB0F5803F05D1EA
:101360006868A16820F4003008436860D4E9080187
:101370000843696821F4741108436860C6F86090F6
:10138000FFF7B6FC044606E025E000BFFFF7B0FC1F
:10139000001B022809D828688001F7D51BE000BF90
:1013A000FFF7A6FC001B022802D90320BDE8F88F36
:1013B00028688001F4D40EE00128F7D06868226A1A
:1013C00000F48031914204D1616A00F470108842C7
:1013D00001D00120EAE70020E8E700000010024009
:1013E00000004242800442420C0100200070004094
:1013F00010B5401EB0F1807F01D3012010BD4FF029
:10140000E02460610F21601701F030F80020A06136
:1014100007202061002010BD7047704710B590F87C
:101420003C20012A22D0012280F83C20CA688C6826
:1014300022F4407222434C6822F4806222430C68FA
:1014400022F4006222430C6922F4805222434C6948
:1014500022F400522243C969002322F480420A4345
:1014600001684A6480F83C30002010BD022010BDA5
:1014700070B590F83C20012A26D0012480F83C4029
:10148000022280F83D2003685A689D6822F07006A9
:101490000A6832435A600D4B02689A4208D0B2F192
:1014A000804F05D00A4B9A4202D00A4B9A4204D18F
:1014B000496825F080031943916080F83D40002180
:1014C00080F83C10084670BD022070BD002C014021
:1014D000000400400008004010B5040003D094F858
:1014E0003D0010B107E0012010BD002084F83C0051
:1014F000204600F01FF8022084F83D00211D2068DE
:1015000000F084FE012084F8460084F83E0084F850
:101510003F0084F8400084F8410084F8420084F8D9
:10152000430084F8440084F8450084F83D0000201E
:1015300010BD000008B5124A01681248914207D157
:10154000816941F400618161806900F4006009E013
:101550000D4A914208D1C16941F00201C161C069DF
:1015600000F00200009008BD084A9142FBD1C16919
:1015700041F00401C161C06900F00400F2E700001D
:10158000002C014000100240000400400008004010
:1015900090F83D10012901D001207047022180F808
:1015A0003D1000680B49884208D0B0F1804F05D04B
:1015B0000949884202D00949884204D1816801F072
:1015C0000701062903D0016841F0010101600020F4
:1015D00070470000002C014000040040000800405B
:1015E00070B5044690F83C00012817D0012584F816
:1015F0003C50022084F83D002068826822F0770287
:1016000022F47F4282600868502830D00DDC202808
:101610004DD005DC98B310283BD148E0022070BDC6
:10162000302844D0402834D139E0602828D07028B0
:1016300006D0B0F5805F2CD0B0F5005F29D10AE06C
:10164000CB68D1E90121206800F023FE2068816881
:1016500041F0770109E0CB68D1E90121206800F071
:1016600018FE2068816841F48041816011E0CA68F9
:101670004968206800F0C2FE5021206807E016E0AB
:10168000CA684968206800F0CAFE6021206800F03E
:101690000AFE84F83D50002084F83C0070BDCA6802
:1016A0004968206800F0AAFE40212068EFE7226820
:1016B00001461046EBE72DE9F0410D46040003D04A
:1016C00094F83D0018B108E00120BDE8F081002049
:1016D00084F83C00204600F041F8022084F83D00E8
:1016E0002068816844F2070291438160211D2068CF
:1016F00000F08CFD226890689169166A2B68AF69CA
:10170000034340F20330814341EA0721A868EF69AF
:1017100008434FF6FC418843E96840EA072001434B
:1017200028692F6A000140EA0730084369686D693B
:1017300026F0220646EA0515294393602268906147
:1017400054F8460B0162012004F81F09E075207669
:10175000E0762077A0750020B7E7000000B585B0DF
:10176000002100910191029103910068B0F1804F36
:1017700020D11148C16941F00101C161C16901F085
:1017800001010491816941F0040181618069694628
:1017900000F004000490032000900120029007480C
:1017A000FFF7A4F9002211461C20FFF71DFB1C20A7
:1017B000FFF70CFB05B000BD00100240000801401F
:1017C00070B590F83E60044690F83F5090F8423073
:1017D00090F84320022021B104290ED0012E1BD104
:1017E00014E0012E18D1012B16D184F83E0084F8A4
:1017F000420001220021206820E0012D0CD1012AA5
:101800000AD184F83F0084F8430014E0012D03D18D
:10181000012B01D1012A01D0012070BD84F83E00C6
:1018200084F83F0084F8420084F84300012200213C
:10183000206800F021FD01220421206800F01CFD39
:101840002068016841F001010160002070BD70470F
:1018500070B50446006801694FF00005C943890767
:1018600015D4C168C943890711D4E91E016101205B
:101870002077206880698007204602D0FFF7E7FFC5
:1018800004E000F0E3F8204600F072F925772068C4
:101890000169C943490717D4C168C943490713D42B
:1018A0006FF004010161022020772068806910F444
:1018B000407F204602D0FFF7CAFF04E000F0C6F8E0
:1018C000204600F055F9257720680169C9430907CA
:1018D00016D4C168C943090712D46FF00801016129
:1018E000042020772068C0698007204602D0FFF7D7
:1018F000AEFF04E000F0AAF8204600F039F92577A1
:1019000020680169C943C90617D4C168C943C9061B
:1019100013D46FF010010161082020772068C0699E
:1019200010F4407F204602D0FFF791FF04E000F062
:101930008DF8204600F01CF9257720680169C9431D
:10194000C90708D1C168C943C90704D1891E01610B
:10195000204600F05DF920680169C943090609D4F1
:10196000C168C943090605D46FF0800101612046B2
:10197000FFF752FD20680169C943490609D4C168CF
:10198000C943490605D46FF040010161204600F0CB
:1019900040F920680169C94389060BD4C168C9436D
:1019A000890607D46FF0200101612046BDE8704030
:1019B000FFF733BD70BD000000B585B00021009178
:1019C0000191029103911B4B02681B4802219A422C
:1019D00012D1826942F0040282618069039100F0B1
:1019E000040004904FF44070CDE9000169461348AB
:1019F000FFF77CF805B000BD114B9A42FAD182691D
:101A000042F0080282618069039100F008000490AE
:101A10002020CDE9000169460A48FFF767F80A4827
:101A2000416821F4406141F0E06141F400614160AE
:101A3000E0E70000002C01400010024000080140D7
:101A400000040040000C014000000140704770B5E8
:101A5000044690F83C000D4601280AD0012084F885
:101A60003C0042B1042A18D0082A2AD00C2A4DD1B1
:101A700039E0022070BD206800F01EFC20688169FA
:101A800041F0080181612068816921F004018161D0
:101A9000206881692A69114311E0206800F034FC54
:101AA0002068816941F4006181612068816921F4C5
:101AB00080618161206881692A6941EA022181612E
:101AC00024E0206800F04CFC2068C16941F0080166
:101AD000C1612068C16921F00401C1612068C16948
:101AE0002A69114311E0206800F066FC2068C16992
:101AF00041F40061C1612068C16921F48061C16164
:101B00002068C1692A6941EA0221C161002084F884
:101B10003C0070BD10B5040003D094F83D0010B136
:101B200007E0012010BD002084F83C00204600F0B2
:101B30001EF8022084F83D00211D206800F066FB9D
:101B4000012084F8460084F83E0084F83F0084F8C1
:101B5000400084F8410084F8420084F8430084F88F
:101B6000440084F8450084F83D00002010BD704713
:101B70007047000010B50446022249B104290ED076
:101B8000082913D094F84100012816D0012010BD77
:101B900094F83E000128F9D184F83E200FE094F833
:101BA0003F000128F2D184F83F2008E094F840007B
:101BB0000128EBD184F8402001E084F84120012283
:101BC000206800F059FB0F492068884203D1426C1D
:101BD00042F4004242642068884208D0B0F1804F4D
:101BE00005D00949884202D00849884204D1816859
:101BF00001F00701062903D0016841F001010160ED
:101C0000002010BD002C01400004004000080040EE
:101C100070477047FEE70000FEB50021264800919E
:101C20000191244A02910260921582600125057398
:101C3000017505244FF460220461C2614160FEF722
:101C400083FC08B172B6FEE7022607200096CDE9B4
:101C5000015069461848FEF7F5FB08B172B6FEE779
:101C60000325CDE9005669461348FEF7EBFB08B1A2
:101C700072B6FEE70426CDE9006569460E48FEF718
:101C8000E1FB08B172B6FEE7CDE9004669460A48B5
:101C9000FEF7D8FB08B172B6FEE70820CDE90004D4
:101CA00069460548FEF7CEFB002801D072B6FEE774
:101CB000FEBD000000240140100100202DE9F04F7E
:101CC00085B00025434800950195029503958169EB
:101CD00041F010018161816901F010010491816975
:101CE00041F020018161816901F020010491816945
:101CF00041F004018161816901F00401049181696D
:101D000041F0080181618069DFF8CC9000F00800A3
:101D10004FF420440490002221464846FEF7E3FF9A
:101D2000DFF8B8A048F2D837002239465046FEF70F
:101D3000DAFFDFF8ACB04FF41C48002241465846A9
:101D4000FEF7D1FF0126CDE900460224CDE9025479
:101D500069464846FEF7CAFE402000902148CDE97A
:101D6000010469465846FEF7C1FE8020CDE9000512
:101D7000694602945846FEF7B9FE600300901A487F
:101D8000CDE9010469465046FEF7B0FECDE90254A4
:101D9000CDE9007669465046FEF7A8FECDE902542B
:101DA000CDE9008669465846FEF7A0FE00220121D3
:101DB0001720FFF719F81720FFF708F80022022173
:101DC0002820FFF711F82820FFF700F805B0BDE83C
:101DD000F08F00000010024000100140000C014094
:101DE00000080140000011100000311010B596B03D
:101DF00000240F9410941194129413941C2168469B
:101E00001494FEF7E1F9202107A8FEF7DDF92C482C
:101E10002A4901604721C0E901146321C0E9031484
:101E200044618461FFF758FB08B172B6FEE74FF4D6
:101E300080500F900FA92248FFF7D2FB08B172B66D
:101E4000FEE71F48FFF766FE08B172B6FEE713947F
:101E500013A91B481494FFF70BFB08B172B6FEE7F9
:101E60006020CDE9000402940394049405940022B8
:101E7000694613480694FFF7EAFD08B172B6FEE71B
:101E8000042269460E48FFF7E2FD08B172B6FEE78C
:101E90000794089409944FF400500A94CDE90B403C
:101EA00007A907480E94FFF7B9FA08B172B6FEE722
:101EB0000348FFF781FD16B010BD0000002C014063
:101EC0004001002010B58CB024216846FEF77CF953
:101ED0000024154809944FF080410A94C0E9001489
:101EE0004FF6FF71C0E90241046184610320CDE92E
:101EF00000040120CDE902040494CDE905400794D3
:101F0000694609480894FFF7D6FB08B172B6FEE7A8
:101F1000099409A904480A94FFF7AAFA002801D0F5
:101F200072B6FEE70CB010BD8801002010B58EB06F
:101F300000240794089409940A940B941C21684681
:101F40000C94FEF741F91E481C49016041F61F41FF
:101F5000C0E90114C721C0E903148461FFF7BCFA8A
:101F600008B172B6FEE74FF48050079007A91448F5
:101F7000FFF736FB08B172B6FEE71148FFF7CAFD5E
:101F800008B172B6FEE70B940BA90D480C94FFF74D
:101F90006FFA08B172B6FEE76020CDE90004029442
:101FA0000422694606480494FFF751FD08B172B651
:101FB000FEE70348FFF700FD0EB010BD000400402F
:101FC000D001002010B586B0002417480094019479
:101FD0000294039404941349059401604721C0E9D5
:101FE00001144FF6FF71C0E903148461FFF774FA1E
:101FF00008B172B6FEE74FF48050009069460A4877
:10200000FFF7EEFA08B172B6FEE7049404A9064899
:102010000594FFF72DFA002801D072B6FEE706B04E
:1020200010BD00000008004018020020FEE7FEE797
:102030002DE9F04F80F000454B4C85B0AA46256352
:102040002946606B02F026F9064660632946606AFD
:1020500002F0F2FA07463146A06A02F0EDFA0646AF
:102060002846A16B02F0F0FBE16A02F0E5FA0546B2
:102070003146384602F00EF9294602F00BF90546C2
:102080000121E06B02F0B5FC02F0D8F802460B46E5
:102090000020364901F0A6FB0746884628460491F1
:1020A00002F0CCF805460E46A06902F0C7F84FF0E2
:1020B000FF3202F070FC2A46334601F0AFFD0546C0
:1020C00003910E46206A02F0B9F8814633462A464B
:1020D000029101F0CBFA83460191E06902F0AEF87B
:1020E00002460B460020224901F07CFB04465A467A
:1020F0000091019B01F092FD43463A4601F08EFDAE
:1021000001F082FA184EBB4680368046306304994F
:102110002A460F46DDE90213484601F0A5FF0246B4
:102120000B462046009901F079FD5A463B4601F0E6
:1021300075FD01F069FA0F49F062884200DDF16235
:10214000884500DD31630C49F26A00208A4200D3E1
:10215000F062326B8A4200D330630348C0F838A083
:1021600005B0BDE8F08F00000000002000004E40E8
:102170000000F03F00007A43000080807047704705
:102180007047FEF7BBBD30B593B028216846FEF717
:102190001BF814210AA8FEF717F8002501200F9557
:1021A00010951195010412958DE8230004904FF4C9
:1021B000E010CDE90810022407946846FEF788FF76
:1021C00008B172B6FEE70AA90F2081E831004FF48A
:1021D0008060CDE90D0502210AA8FEF7ADFE08B129
:1021E00072B6FEE74FF4004011900F940FA8FEF76F
:1021F0002DFE002801D072B6FEE713B030BD704747
:102200000148FFF725BB000088010020F0B50268F7
:10221000164B174C174D4FF08047984205D0B842E7
:1022200003D0A04201D0A84203D122F070064A6830
:102230003243984205D0B84203D0A04201D0A84210
:1022400003D122F44074CA6822434C6922F0800210
:10225000224302608A68C2620A688262984201D19F
:102260000969016301214161F0BD0000002C0140BA
:10227000000400400008004010B501F01F030121D8
:10228000046A99408C430462016A9A4011430162D6
:1022900010BD10B5846842EA032224F47F440A4347
:1022A0002243826010BD826822F070020A4342F02D
:1022B000070181607047000030B5026A22F0010218
:1022C0000262026A4368846924F073050C682C4337
:1022D00022F002058A682A430A4DA8420BD122F057
:1022E0000805CA6823F440732A434D6922F00402AA
:1022F0001D438B692B4343608461496841630262DB
:1023000030BD0000002C014030B5026A22F01002FE
:102310000262026A436884690D6824F4E64444EA70
:1023200005248D6822F0200242EA05120B4DA842D6
:102330000ED1CD6822F0800242EA05124D6923F4E5
:10234000406343EA85038D6922F0400243EA850336
:102350004360846149688163026230BD002C0140A2
:1023600030B5026A22F480720262036A4268C4696C
:1023700023F4007324F073050C682C438D6843EA42
:1023800005230C4DA8420ED1CD6823F4006343EA27
:1023900005234D6922F4405242EA05128D6923F467
:1023A000806342EA05124260C4614968C163036206
:1023B00030BD0000002C014030B5026A22F480528A
:1023C0000262046A4268C3690D6823F4E64343EA83
:1023D00005238D6824F4005444EA0534064DA842D0
:1023E00004D14D6922F4804242EA85124260C36101
:1023F00049680164046230BD002C014010B5036AD5
:10240000046A24F001040462846924F0F00444EABC
:10241000021423F00A020A438461026210BD10B55F
:10242000036A23F0100303628369046A23F4704390
:1024300043EA023224F0A00343EA011182610162FF
:1024400010BDFEE7490050EAC12018BF04204A0D24
:1024500018BF40F0010040F2FF72B2EB515F08BFBD
:1024600040F00200012808BF052070470907090E47
:10247000002804DB00F1E02080F80014704700F031
:102480000F0000F1E02080F8141D70472DE9F041A5
:102490004F1E00EBC7010446D1E9000115461E4658
:1024A00037F006020DD02A46334601F0B7FB7F1EF7
:1024B00004EBC703D3E9002301F0D8F837F0060294
:1024C000F1D1022F25D0042F13D0062F18BFBDE85D
:1024D000F0812A46334601F0A1FBD4E90A2301F03A
:1024E000C5F82A46334601F099FBD4E9082301F0E8
:1024F000BDF82A46334601F091FBD4E9062301F0EA
:10250000B5F82A46334601F089FBD4E9042301F0EB
:10251000ADF82A46334601F081FBD4E9022301F0ED
:10252000A5F82A46334601F079FBD4E90023BDE83B
:10253000F04101F09BB8000000221346104601490B
:1025400001F050B90000F03F01F090B800221346AE
:102550001046114601F046B940F2013200204FF01A
:10256000E04102F018BA0000024A0020110702F010
:1025700012BA000001FDFFFF044900220B685A62F5
:1025800009684A6A8242FCD370470000400100207B
:102590002DE9F04700262E4C324633466667E66743
:1025A00030462C4D616903E035F813705B1C3844EC
:1025B0008B42F9DBB0FBF1F3C4E91D030020A9460F
:1025C00006E000BF39F81050ED1A05FB0522401C4B
:1025D0008842F7DBB2FBF1F0E26701F0CFFA00F0DE
:1025E000B7FF01F087FA1A4D66678035E0672E6005
:1025F00000261EE0E06F01F0C1FA00224FF0804398
:1026000000F09CF90746884639F81600A16F401A79
:10261000404301F0B3FA43463A4601F0FDFB07D2CE
:1026200039F81600616F084460672868401C28600C
:10263000761C60698642DDDB286828B1616FB1FBDA
:10264000F0F06081BDE8F08701202860FAE7000023
:10265000000000206002002008B5FEF757FBFFF7DE
:1026600092FD7E4CA06940F00100A061A0697C4908
:1026700000F001000090486820F0E06040F08070B9
:102680004860FFF71BFBFFF7B1FBFFF71BFC60691E
:1026900040F0010060616069002200F001000090DC
:1026A00011460B20FEF7A0FB0B20FEF78FFBFFF778
:1026B00089FCFFF7B1FAFFF739FC6A48FEF768FFBB
:1026C00068484830FEF764FF66489030FEF760FFC8
:1026D0006448D830FEF75CFF624800214830FFF7BD
:1026E0006FF8604804214830FFF76AF800215D4820
:1026F000FFF740FA04215B48FFF73CFA59480421F0
:102700009030FFF737FA584C012211022046FEF7AD
:10271000EAFA002261152046FEF7E5FA0022402180
:102720002046FEF7E0FA012280212046FEF7DBFA80
:10273000DFF838B14E4D4F4F4A4E4FF031084FF051
:1027400045094FF0000A0BF1800400BF00F00CFEB9
:102750006868B84206DDA968B94203DD464AE968FF
:10276000914208DC4549884241DDA868B8423EDD17
:10277000E868B8423BDDC4F810A0C4F828A031686E
:10278000C1F838A03168C1F834A0002000F01AFF69
:102790004FF44870FEF754F900F000FF00F0BAFD66
:1027A0005A2000F00FFF4FF4FA70FEF749F9BBF81A
:1027B0000400083848280AD2C4F82890C4F81080C9
:1027C0003268C2F838803068C0F8349009E0C4F844
:1027D0001090C4F828803268C2F838903168C1F887
:1027E00034804FF4FA70FEF72BF9ABF804A0286898
:1027F000B84214DA6868B84211DAA868B8420EDA4A
:10280000E868B8420BDA2869B84208DAC4F810A0C0
:10281000C4F828A031685046C1F838A00EE0206CFA
:10282000FFF706FCE16AE06800F02CF8216B206AF3
:1028300000F054F8306821698163A06A3168486308
:102840001320FEF7FDF800F01BFE00F053FE4FF4DE
:1028500000510B48FEF73FFA78E7000000100240F5
:102860000000014040010020000C01400000002059
:102870008002002000803B4500002F4500C00F452E
:10288000001001402DE9F04101F0D3FF124D064642
:10289000A5F180046863E16D01F0CEFE216D01F0C9
:1028A000F9FC01462065606C01F0C6FE0746314622
:1028B000206C01F0C1FE394601F0ECFC01F020FE75
:1028C0002861A16D884202DD2961BDE8F081002800
:1028D000FBDA00202861F8E7800000202DE9F041B4
:1028E00001F0A7FF144D0646A5F18004A863E16D31
:1028F00001F0A2FE616D01F0CDFC01466065E06C67
:1029000001F09AFE0746A06C01F016FE01F04CFEA5
:10291000314601F091FE394601F0BCFC01F0F0FDBA
:10292000A862A16D884202DDA962BDE8F08100289D
:10293000FBDA0020A862F8E7800000202DE9F04DC6
:102940001D460C4698B0174621F0004123F0004385
:10295000002814BF4FF0010C4FF0000C0CEB440C9E
:10296000FE4A0CEB02064FEA620C66452BD33E0092
:1029700018BF012606EB45061644F94A964222D3B3
:10298000F84A53EA070C02D0944205D148B918B06E
:1029900000201146BDE8F08D002808BF4FF0000C64
:1029A00001D04FF0010C0CEB440212F5001F0AD8C5
:1029B000002F14BF4FF0010C4FF0000C0CEB450240
:1029C00012F5001F07D918B03A462B462146BDE83C
:1029D000F04DFFF7B9BD0022DFF88CA3002CB8BF83
:1029E000534526DADFF884C36345A8BF022220DA04
:1029F000DFF870C39C451CDCDFF874C30CEB235C70
:102A0000BCF1140F08DDCCF1340627FA06FC0CFAF1
:102A100006F6BE420DD108E05FB9CCF1140623FAE8
:102A200006FC0CFA06F69E4203D10CF00102C2F13C
:102A3000020251EA000C19D1002D17DA002C18BF40
:102A4000022A01D0012A07D00220FDF7ECFB18B0C2
:102A5000BDE8F04DFFF770BD0220FDF7E4FBFFF786
:102A60006BFD18B081F00041BDE8F08DB7F1000CAE
:102A70006CD1534525D104F1804212F5801201BF7B
:102A800000280020B74918B008BFBDE8F08DB54850
:102A9000884207DC002DA1BF6046294618B0BDE87A
:102AA000F08D07E0281E05DA80F0004118B060467E
:102AB000BDE8F08DAF497944D1E9000118B0BDE817
:102AC000F08DDFF8A0C2634525D1002D1FDA19B1C2
:102AD000514512D1D8B909E0002840F0EC82A24A51
:102AE000214618B062F31E01BDE8F08D002021469A
:102AF00018B060F31E01BDE8F08D08DA18B0234667
:102B0000BDE8F04D02460020614600F06BBE18B0F3
:102B10002146BDE8F08D514518DAB5F1804F0DD052
:102B2000A5F1005CBCF1FF5C10D1B4F1000C0DDB31
:102B300018B06146BDE8F04D00F00ABD234618B05C
:102B40000246BDE8F04D194601F068B8060024F0D1
:102B5000004C3BD1D9B1514533D1002C06DD002DBD
:102B6000A1BF0020514618B0BDE8F08D002C01DD5A
:102B7000002D1BDB002C13DA002D11DB012A4FF096
:102B8000000014BF78497C4918B0BDE8F08D022AD6
:102B900018BF002C0AD0012A08D1002C06DA0AE05E
:102BA000002CB8BF002D11DA012A04D0002018B083
:102BB0000146BDE8F08D18B000204FF00041BDE89F
:102BC000F08DA1F14050B0F17F601AD0012000EBF0
:102BD000E47050EA020421D0624C521E4FF0000B08
:102BE000104304BF4FF0000B644C654883427CDD0A
:102BF000644A654893421FDD884217DB002D25DBC0
:102C000037E0002C00DA4AB1022A0CBF01204FF055
:102C1000FF3018B0BDE8F04D00F099BF0120FDF77E
:102C200002FB18B0BDE8F04DFFF790BC4D4A8A4258
:102C300002DC002D0ADC1CE0814202DA002D18DAE9
:102C400004E0484B994220DD002D12DD0220FDF703
:102C5000EAFAFFF781FC05460E4600225346584625
:102C6000214600F0DBFF18B066F31E012846BDE8E0
:102C7000F08D0220FDF7D7FAFFF776FC0A462146D1
:102C800018B062F31E01BDE8F08D002230466146A7
:102C900001F0EAF980460E466FF0010201F07BFE7A
:102CA0004FF05532394B01F0EDF84246334600F013
:102CB000B5FF0022364B01F0E5F882464246334626
:102CC00004911046194600F0A9FF5246049B00F0FB
:102CD000A5FF8A4600904FF0C0422E4B4046314639
:102CE00000F09CFF2C4A2B4B00E027E0CDE90601C9
:102CF0005146009800F092FF82460191274A284BE6
:102D00004046314600F08AFF5246019B01F0ACF983
:102D100082460B4602460591DDE9060100F0A6FC5D
:102D2000DDE9062300268846304601F09DF952462B
:102D3000059B01F0A7F8024600F07EB90020B1F52E
:102D4000801F07DA35223046614601F024FE064630
:102D50006FF0340000EB215024E00000FFFF1F0063
:102D6000FFFF0F000000F03F0000F07F0000404335
:102D700001FCFFFF4E2000000000F0FF0000F0BF4C
:102D80000000E0410000F043FFFFEF3F5555D53F05
:102D90000000E03F4715F73FFE822B6544DF5DF8FA
:102DA0000BAE543EA0F2FF300190C1F3130040F08F
:102DB0007F6141F040510291FE498842D8BF002016
:102DC00004DDFD498142C8BF012001DD0D9008E00E
:102DD00000200D900198401C01900298A0F58010F1
:102DE00002900299F54878440B910D9900EBC100CF
:102DF000D0E900230F9330460A920B9901F034F981
:102E0000CDE90601DDE90A2130460F9B00F02EFCDA
:102E100002460B460020EA4900F0E4FC0591024618
:102E20000B460090DDE9060100F0F8FE1490E5483D
:102E30008A464FF0000878440299006812904FF0DB
:102E4000005040EA61010D980F9B01EB804000F5B6
:102E5000002109910A9A129801F006F932460B9B5B
:102E600001F010F84246534600F0D8FE06460291A3
:102E700040465146099B129A00F0D0FEDDE9062338
:102E800001F000F83246029B01F0EEF8059B009A33
:102E900000F0C4FE0091149A04905346104619465F
:102EA00000F0BCFE06460246C7480B4602910621CA
:102EB0007844FFF7EBFACDE90510029B3246104645
:102EC000194600F0ABFEDDE9053200F0A7FE0591E2
:102ED0000646534640461946149A00F0C7FB009B2D
:102EE000049A00F09BFE3246059B00F0BFFBCDE943
:102EF0000510424653461046194600F08FFE002248
:102F0000B24B02910A9000F0B1FBDDE9053200F00E
:102F1000ADFB0E464246AD4B404601F0A5F8029B84
:102F20000A9A01F0A1F8DDE9053200F0ABFF424654
:102F300002910A9033461046514600F06FFECDE9EB
:102F400006015346149A02990A9800F067FE8A46D1
:102F50000290334642460099049800F05FFE5346C3
:102F6000029A00F083FB82460B4602460591DDE99A
:102F7000060100F07BFBDDE90623002088460646BB
:102F800001F072F85246059B00F07CFF82460991E1
:102F90004FF060428E4B3046414600F03FFE0490B9
:102FA00006918C4A8A4B5046099900F037FE8246BA
:102FB0000291894A894B3046414600F02FFE524625
:102FC000029B00F053FB864B7B440D9A03EBC2033C
:102FD000D3E9002300F04AFB0E900791019800F01E
:102FE000B6FD0591DDE9061382460E9A049800F0BD
:102FF0003DFB7C4A7A440D9B02EBC303D3E90023DB
:103000000093029200F032FB5246059B00F02EFB2B
:103010000026884652463046059B01F025F8009B65
:10302000029A01F021F8069B049A01F01DF8079B13
:103030000E9A00F027FF024600200B460290384609
:10304000294600F0EBFD824601912B463846194691
:10305000029A01F009F83246434600F0DFFD52467D
:10306000019B00F003FB07468A4632464346294649
:10307000029800F0D3FD05460E463A46534600F04E
:10308000F5FA594A8846914221DBA8EB020353EA3C
:10309000000210D12A46334600F0E6FFCDE90401D4
:1030A000524A534B3846514600F0E0FADDE904231A
:1030B00000F0B2FE21D20220FDF7B5F8FFF74CFA7E
:1030C0000A46214618B062F31E01BDE8F08D494B57
:1030D00028F000429A4210D3474A08EB020353EA11
:1030E00000027FF4C6AD2A46334600F0BDFF3A46E3
:1030F000534600F091FE7FF6BCAD0022019228F00D
:1031000000403E493E4A01EB2051824223DA481CEE
:103110004FF4801121FA00F040443A4AC0F30A51BA
:103120007A44394BA1F2FF31CB4020EA0303C0F3CC
:10313000130040F48010C1F11401C84012680190DE
:10314000B8F1000FBCBF404201902846314600F064
:103150008BFF05460E462A4633463846514600F058
:1031600085FA4FF000084246284B4046059100F092
:1031700055FDCDE90601264A264B4046059900F04B
:103180004DFD009102902A4633464046059900F0D5
:103190006BFF3A46534600F075FE1F4A1F4B00F086
:1031A0003DFD009B029A00F061FA07468846024600
:1031B0000B4635E08E9803007AB60B00961C000093
:1031C0000000F03FCE1C0000FC1B00000000084087
:1031D00009C7EE3FFD033ADCF5015B14E02F3EBE6C
:1031E000D41A0000981A000000009040FE822B655F
:1031F0004715973C00CC904000346F3F01FCFFFF27
:103200000000E03FE4190000FFFF0F00432EE63FFF
:10321000396CA80C615C20BEEF39FAFE422EE63F05
:10322000DDE9060100F022FADDE9062305460E4637
:1032300000F01AFF3A46434600F024FE0F462A46A5
:10324000334600901046194600F0E8FC82460246DC
:103250002E4888460B4605217844FFF717F9524659
:10326000434600F0DBFC2A46334600F00BFE804666
:103270008A463B4628463146009A00F0CFFC3B4642
:10328000009A00F0F3F90691009000224FF080437D
:103290004046514600F0E8FE0F460C904246534629
:1032A0002846314600F0BAFC3B460C9A00F09AFAE8
:1032B000069B009A00F0D8FE2A46334600F0D4FE62
:1032C0000022134B00F0DEFD054601980E4601EB8F
:1032D00000510815002810DC28463146019A01F0FB
:1032E0005AFBFFF7AFF8042808BFFFF73DF928465F
:1032F0003146019A01F04FFB05460B4618B02A46AD
:1033000058462146BDE8F04D00F088BC8418000006
:103310000000F03F10B5104C60882188401A00F082
:1033200016FC0E4A0E4B00F079FC4FF0FF3201F014
:1033300032FB00F0DFFBA0800A4A216922F811006D
:10334000491C21616069814205DB00202061BDE8E4
:103350001040FFF71DB910BD000000209CC420B034
:103360007268A13F600200202DE9F05F404905220C
:10337000A1F5B270FDF7CEF9DFF8F8803C4D0024DE
:1033800008F1140908F1280AA8F1C40B05F10C068C
:1033900035F8140001F008F9474658F8241001F0F8
:1033A00017FA05D257F8240001F0C6F825F81400E2
:1033B00035F8140001F0F8F84F4659F8241001F0E0
:1033C00007F905D257F8240001F0B6F825F81400E3
:1033D00035F8140001F0E8F857F8241001F034FA39
:1033E0005AF8241001F028F9DBF8701000F052FFB1
:1033F00046F82400641C052CCADBD6E90085294662
:10340000404600F047FFB16800F044FFF4682146F1
:1034100000F040FF3769394600F03CFFDFF8589074
:1034200006464946384601F007F9144F82463946A8
:10343000204601F001F904463946284601F0FCF81F
:1034400005464946404601F0F7F8294600F022FFBC
:10345000214601F0F9F9514601F0F6F9314600F044
:103460008DFF044944390864BDE8F05F01F048B8B5
:1034700074020020C4000020000048430000C8423D
:103480002DE9F041FDF734FC164C6168401A1649ED
:10349000A06009688846496A0EB2A4F180018E8155
:1034A0004FF4BB61484300F052FB05460F467042A3
:1034B00000F04DFB00220D4B00F0B0FB00220C4B46
:1034C00000F0ACFB2A463B4600F08CF900F09CF87B
:1034D000E0600020C8F82400FDF70AFC6060BDE849
:1034E000F0810000800000208801002000408F4013
:1034F00000004E402DE9F041FDF7FAFB114CA4F11C
:1035000080056169401AE061268BE988711A0FB263
:103510004FF4BB712F81484301F02EF880463846A6
:1035200001F02AF8084901F087F8084901F084F809
:10353000414600F023FF2062EE80FDF7D9FB606179
:10354000BDE8F0818000002000007A440000704255
:103550002DE9F04106460F4600F0A0FC041E0D4682
:1035600018BF0120284320F00040C0F17F6000F127
:10357000E040C00F0ED0301C18BF0120384320F0AF
:103580000040C0F17F6000F1E040C00F04BF0120A7
:10359000FCF749FE20462946BDE8F08170B50122BE
:1035A000074DD40321462846FDF79DFB0A20FEF770
:1035B000E3FF21462846BDE870400022FDF793BB9B
:1035C000000C014010B500F0C2FA0022094B00F0D7
:1035D00009F90022084B00F049F80022074B00F0DF
:1035E0001DFB00F057FA0649C8630649096888635D
:1035F00010BD0000008066400000F03F0000244045
:1036000080000020D001002021F00042A2F1605291
:10361000B2F5801F01F0004328BFD2F17F6C0BD9B7
:103620005FEA001C43EAC20242EB507018BF7047C9
:1036300028BF20F001007047B2F5801FBCBF1846BC
:1036400070474FEA410C1CF5001F02D2084601F0FA
:10365000BAB870B500F08CFB00000089FFF7F6BF28
:103660004FF00040A0F580007047000010B591EACF
:10367000030F48BF83F0004300F1FE84841A71EB0E
:10368000030C05D2121943EB0C03001B61EB0C0178
:10369000DFF824E14FEA1154A4EB135C1EEA430F58
:1036A00018BF9EEA445F73D023EA0E03DCF1200EBC
:1036B00021EA045143F4801332D322FA0CFE10EBBA
:1036C0000E0023FA0CFE41EB0E01CCF1200E03FAA2
:1036D0000EFE10EB0E0051F10001B1F5801FCCF190
:1036E000200E32D201EB045112FA0EF2BDE8104066
:1036F00058BF7047401C38BF5FEA420218BF70478E
:10370000002814BF20F0010041F100014FEA4103FD
:1037100013F5001F38BF7047A1F1C04100F076BB20
:10372000012A43EB0302ACF1200CDCF11F0E32BF87
:103730004FF0000E23FA0CF310EB030041EB0451A1
:10374000B4EB115FD0D0A1EB045101F58011490811
:103750005FEA300001EB04510ED350F1000038BF96
:1037600012FA0EFE08D1BDE81040C9E7401C38BF70
:103770005FEA4202CAD1C3E7BDE810404FEA410305
:1037800013F5001F38BF7047A1F1C04100F03EBBE8
:103790009EEA445F08D011EA5E0FBDE8104004BF06
:1037A00001F0004100207047BDE8104070B500F006
:1037B000DFFA00BF64FBBE3E0000E0FF02494FF0AD
:1037C000000001F0B6B800BF0000F87F491058BFF4
:1037D000C1F140415B1058BFC3F140438B42EFF34E
:1037E000008070472DE9C04130B4DFF8A0C23CEA48
:1037F000111418BF3CEA131400F0EC8081EA0305B1
:103800001CEA111444EAD57418BF1CEA131500F021
:10381000C780A4EB05044FF0004545EAC12145EA05
:10382000C32341EA505143EA525304F17F74994251
:1038300004F500344FEAC0204FEAC22208BF90428C
:1038400000F09C804FEA13650FF24016765D4FEA58
:10385000134506FB05F7C7F1807706FB07F74FEA2C
:10386000D737A7FB03687642C8F58038A7FB06CE9A
:1038700038BFA8F1010807FB08E64FF0000EA6FBD1
:10388000028CE6FB03CEDCF1000CCEF1004E38BF1B
:10389000AEF1010EA6FB0C584FF000074FF00005EB
:1038A000E6FB0E87A1FB08C6A0FB07CE16EB0E06B3
:1038B00045F10005E1FB076515F1E04E7EBFA4F57B
:1038C00080345FEA46066D4116F1800745F1000538
:1038D0004FEA17274FEA066647EA0567A6F1DE4674
:1038E000B6F1805F4FEA15251FD9384624F0010C48
:1038F00005EBC471BCF1FE6F01EB0C1102D8F0BCFA
:10390000BDE8008124425CBF01F5801E9EEAC47FB1
:1039100002D4F0BCBDE80081244238D4F0BCA1F14F
:10392000C041BDE8004100F071BA4FEAD22242EA3C
:1039300043524FEAD323A7FB02864FEAD02040EA46
:10394000415007FB03661EEA0E0F4FEAD12105FB2B
:10395000026658BFA6EB0056B6EB00564FEA520E71
:103960004EEAC37E18EB0E0E56EB530EBDD518EB88
:1039700002085E417F1C55F10005B6E74FF4801543
:103980004FF000074FF000064FF00008ADE7F0BC25
:103990004FF0000001F1C04101F00041BDE800819D
:1039A00011EA0C1F0CEA131500D00CE013EA0C1FEF
:1039B00000F025804FF00000F0BC81EA030101F027
:1039C0000041BDE80081F0BCBDE8004181EA03018F
:1039D00000F01CBAF0BCBDE8004170B500F0C8F9B9
:1039E000097EFC3E00F007B881EA03014FF00000B9
:1039F00001F00041704781EA030100F007BAF0BC12
:103A0000BDE800414FF0000021497047FFFDFBF980
:103A1000F7F5F4F2F0EEEDEBE9E8E6E4E3E1E0DE01
:103A2000DDDBDAD8D7D5D4D3D1D0CFCDCCCBCAC873
:103A3000C7C6C5C4C2C1C0BFBEBDBCBBBAB9B8B79A
:103A4000B6B5B4B3B2B1B0AFAEADACABAAA9A8A88D
:103A5000A7A6A5A4A3A3A2A1A09F9F9E9D9C9C9B5B
:103A60009A99999897979695959493939291919006
:103A70008F8F8E8E8D8C8C8B8B8A89898888878797
:103A80008685858484838382828181800000FF070C
:103A90000000F87F4FEA41034FEA5353A3F58063D8
:103AA000D3F11E03C8BFD3F1210C0CDD4FF000424F
:103AB00042EAC12242EA505232FA03FC8CEAE17C2B
:103AC000ACEBE1707047102BC4BF0020704703F5CA
:103AD000787CBCF1FF3F04D06FF0004282EA210005
:103AE000704770B500F044F9499224800020704777
:103AF000F2E700004FEA1153A3F58063D3F11E03F0
:103B0000A8BFD3F1200C08DB4FF0004242EAC122EB
:103B100052EA505232FA03F0704709420BD4102B8C
:103B2000C4BF0020704703F5787CBCF1FF3F05D08F
:103B30004FF0FF3070474FF00000704770B500F055
:103B400017F900BF4992248000207047F0E710F079
:103B5000004248BF4042B0FA80F310FA03F10AD0A5
:103B6000C3F11D0303F580634FEA415002EB03529A
:103B700002EBD12170474FF000007047B0FA80F39C
:103B800010FA03F10AD0C3F11D0303F580634FEA75
:103B900041504FEA035202EBD12170474FF0000031
:103BA0007047000051EA030C17D41CF5801F58BF62
:103BB000BCF5801F00F10680994218BF704708BF0E
:103BC0009042704707D711F5801F58BF13F5801F2B
:103BD00019D499427047894270471CF5801F08D557
:103BE000BCF5801FF7D58B4218BF704708BF8242D3
:103BF00070474FF4001C1CEB410F38BF1CEB430F08
:103C000001D28B42704770B500F0B2F8922449009F
:103C10004FF000514FF08053FFF7D8BDDFF848C197
:103C200070B51CEA111E1EBF1CEA13159EEA0C0F8C
:103C300095EA0C0F00F06F8081EA030423EA4C132D
:103C40004EEAD47E21EA4C1141F4801143F48013F2
:103C5000AE44A1FB024CA0FB0365AEF17F7E36199A
:103C600055EB0C05A1FB034C4CF10003A0FB021C1F
:103C700016EB0C06654153F10003094218BF46F0EC
:103C8000010613F4007F0BD14FEA03314FEA0530F0
:103C9000340341EA155140EA16506FF003020AE07E
:103CA0004FEAC3214FEAC520F40241EA555140EAE8
:103CB00056506FF0020202EB2E4201EB025585EAEC
:103CC000CE710AD05FEA440C18BF24F0004450F1D2
:103CD000000041F1000120EAD47040F2FE7C624510
:103CE00000D270BDA84214BF4FF080444FF0404452
:103CF000002E08BF0024BEF1806FA8BFA1F1C04113
:103D0000BDE8704080F282804FF0000001F1C041B8
:103D100001F0004170479EEA0C0F0CEA131518BF22
:103D200095EA0C0F06D04FF0000081EA030E0EF06A
:103D3000004170BD00F01CF88900013E00F007B89A
:103D400000F009B84FEA430C5FEA5C5C08D081EAF6
:103D5000030100F05BB84FEA410C5FEA5C5CF6D10E
:103D60004FF00000014970470000FF070000F87F96
:103D70000EF1020E2EF0030E5EF8046B364205D4EF
:103D8000012A43EB030515F5001F12D8012841EB6A
:103D9000010C1CF5001F0CD80ED14FEAD17C15F593
:103DA000001F0CEB4C0C0CF1020C08BF4CEBD37C4D
:103DB00004E04FF0080C01E04FEAD37C0CEB4C051B
:103DC00026FA05F606F00706B6F1040C06D20EEB4D
:103DD000860CBDE870404CF0010C6047DFE80CF049
:103DE000090B02024FF000414FF00000A1F5002145
:103DF00070BD19461046012851EB010418BFD4F5D7
:103E0000001484BF002001F0004170BD0808A0F537
:103E100000114FEA3101704753EA010C17D41CF529
:103E2000801F58BFBCF5801F00F106808B4218BF71
:103E3000704708BF8242704707D713F5801F58BFED
:103E400011F5801F19D48B4270479B4270471CF5B7
:103E5000801F08D5BCF5801FF7D5994218BF704761
:103E600008BF904270474FF4001C1CEB430F38BF53
:103E70001CEB410F01D2994270470FB40CBC03BC3C
:103E8000FFF7C1BE91EA030F10B581F000413FF585
:103E9000F5AB83F0004300F0EFB800002DE9F041EE
:103EA00001F5801CBCF5001FC0F2C3804FEA115C15
:103EB00021EA0C510CF1FD0C41F480115FEA5C0C1D
:103EC0000CF5C07C01D3400049413DA4890241EA80
:103ED000905187028E0E0A0CA45D04FB04F602FBCF
:103EE00006F6C6F14046A4FB0662F60D46EA4226F7
:103EF00006FB06F4A4FB01235242C3F1404338BF42
:103F00005B1EA6FB02420024E6FB0324D20B42EA1E
:103F10004446A6FB0623A1FB02E2A3FB07E4A41888
:103F20004FF0000252F10002E3FB01426442C2F191
:103F3000404E38BFAEF1010EA6FB04234FF0000245
:103F4000E6FB0E32A2FB03464FF00004B61954F113
:103F50000004E2FB0264A1FB06E6A4FB07E816EB03
:103F600008064FF0000858F10008E4FB01687642AB
:103F7000C8F1405838BFA8F10108A2FB06E4A3FB32
:103F800008E52D194FF0000454F10004E2FB085439
:103F9000A1FB05E6A7FB04E818EB06084FF00006B6
:103FA00056F10006E1FB048618F1200556F10006E3
:103FB000A809A8F11B08B10908F03F08B8F10A0FD9
:103FC00040EA86601CD901EB0C51BDE8F08100BFCE
:103FD000FCF5EEE8E2DDD8D3CFCBC7C3C0BDB9B6A0
:103FE000B4B1AEACA9A7A5A3A19F9D9B9A989695A5
:103FF0009392908F8D8C8B8988878685848382812C
:10400000A0FB006800FB01F208EB4208B8EB872830
:1040100007D5341858EB0104D5D5401C51F10001E7
:10402000D1E7341A78EB0104CDD4401E71F10001C0
:10403000C9E75FEA4C0C5FEA9C5C0DD105D34FF0F9
:10404000000001F00041BDE8F081BDE8F04170B52D
:10405000FFF78EFE6DDBFFBEBDE8F0414FF00000C4
:10406000004970470000F87F10B591EA030F48BF80
:1040700083F000433FF502AB841A71EB030C07D2C7
:1040800012198CF0004C43EB0C03001B61EB0C018C
:10409000DFF8A4E14FEA1154A4EB135C1EEA430FCE
:1040A00018BF9EEA445F00F0B08023EA6E035242DC
:1040B00021EA0451C3EB6E0338BF5B1EDCF1200E16
:1040C00025D322FA0CFE10EB0E0043FA0CFE41EB56
:1040D0000E01CCF1200E03FA0EFE10EB0E0051F192
:1040E0000001CCF1200E29D412FA0EF201EB04519A
:1040F000BDE8104058BF7047401C1CBFB2F1004FD4
:10410000704700280CBF491C20F00100704712EBDB
:10411000020E43EB030218BF4FF0010E4EEA4202BB
:10412000ACF1200CDCF11E0E54D943FA0CFE10EB5E
:104130000E0051F1FF31CCF11E0ED5D50EF1010E5E
:1041400012FA0EFE404141EB010101EB445C5FEAD3
:104150005C5C10D910EBDE7001EB045138BFBEF18E
:10416000004FBDE8104018BF704700280CBF491C25
:1041700020F00100704730D24FEAD42C11F5001125
:1041800024F400641BD0B1FA81F20B3AA41AA41EE5
:10419000D2F12003914030FA03F31943904001EB30
:1041A000CC71002C01EB0451BDE81040A8BF704752
:1041B00001F1C0414FF0000001F000417047B0FA3A
:1041C00080F310FA03F100D110BDE41A173C480542
:1041D000C90AE4E701EB045110BD491001EB045199
:1041E000BDE810404FEA300002E04FF00001704798
:1041F0004A0008BF0042F8D0B2F5001F28BF704740
:1042000001F000414FF0000070479EEA445F07D084
:1042100011EA5E0FBDE8104004BF00210020704786
:10422000BDE8104070B5FFF7A3FD00BF40DFF63ECC
:1042300083F00041104670470000E0FF43004FEA62
:10424000D30C4FEA3C0C43401FBF40070CF16051B8
:1042500013F0FE4F70471CF0006F03D100200CF0EC
:10426000004170470CF0004343EA507010B540EA3B
:10427000CC0000F062FA00BF000000924FEA00019B
:10428000FFF7C4BD4FF000414FF00000A1F5002141
:104290007047000090EA010F48BF81F0004100F133
:1042A000DA82421A3CBF801A89184FEAD0524FF086
:1042B0007F4C1CEA410FA2EBD15318BF9CEA026F5E
:1042C00000F03B804FF0004C4CEA00204CEA01210A
:1042D00021FA03FC10EB0C0C1ED202F1FF325FEA54
:1042E0001C2040EBC25038BF70471CF07F0F4FEAD4
:1042F000400C18BFBCF17F4F38BF7047C3F120039B
:10430000994008BF20F00100BCF17F4F38BF7047D3
:10431000A0F1C04000F057BA4FEA3C00000A40EB61
:10432000C25028BF1CF0FF0F4FEA400CE6D018BF68
:10433000BCF17F4F38BF7047EAE79CEA026F05D0B7
:1043400010EA5C0F08BF00F00040704710B500F0A5
:10435000F4F900BF64FBBE3E014800F0EABA00BFBA
:104360000000C07F401058BFC0F14040491058BF06
:10437000C1F140418142EFF3008070474FF47F0C60
:104380001CEAD0121EBF1CEAD11392EA0C0F93EA6A
:104390000C0F00F0858090EA010F48BF42F4807254
:1043A00040F4000C41F400002CF07F4120F07F40ED
:1043B00000B58142A2EB03020FF2081CACEB504E99
:1043C000C0F100009EF800E04FEA4E0E00FB0EFC2C
:1043D00038BF49004FEA2C1C02F5FA020CFB0EF321
:1043E0004FEACE1E4FEA112C4FEAC1210EEB635E5D
:1043F00042EB22420EFB0CFC4FEA1C5300FB031164
:104400004FEA112C4FEA01310EFB0CFC4FEADC4C59
:1044100000FB0C11C14228BF09184CEB03335DF8B7
:1044200004EB10EB410143EBC250B2F57C0F38BFF7
:10443000704729D512F0F00F1CBF00F1C04000F00A
:1044400000407047008182838485868788898B8CB1
:104450008D8E8F919293959697999A9C9D9FA0A2ED
:10446000A3A5A7A8AAACAEB0B2B3B5B7B9BCBEC03D
:10447000C2C5C7C9CCCED1D4D7D9DCDFE2E6E9ECDE
:10448000F0F3F7FAFE0000004FEA400C0CF1807CDC
:10449000BCF17E4F28BF7047B0F1C04000F093B927
:1044A00090EA010F0CEAD11348BF42F480726245D2
:1044B00038BF634507D213F47F0F16D080EA01009E
:1044C00000F00040704710B500F037F9097EFC3E5F
:1044D00000F005B880EA010000F00040704780EA73
:1044E000010000F0004000F06EB912F47F0F04BF2D
:1044F0000248704780EA010000F065B90000C07F03
:1045000041000B0ED3F19E0208D950F400034FEA8C
:10451000032323FA02F048BF4042704710B500F071
:104520000CF900BF49922480002070476FF00042D0
:1045300082EA200070470000C10DD1F19E0206DB27
:104540004FEA002343F0004323FA02F07047004291
:1045500007D54FEA4001B1F1FE4F02D24FF0000003
:10456000704710B500F0E9F84992248000207047A8
:104570006FEA20007047000010F0004148BF404241
:10458000B0FA80F310FA03F2C3F19D030BD051EAA5
:10459000C35101EB1220530638BF704700F10100F0
:1045A00008BF20F001007047B0FA80F310FA03F260
:1045B000C3F19D030AD0D90501EB1220530638BF81
:1045C000704700F1010008BF20F0010070470000B3
:1045D00050EA010C00F113801CF5000F58BFBCF528
:1045E000000F01D48842704707D710F5000F58BF5D
:1045F00011F5000F15D488427047894270471CF5A9
:10460000000F04D5BCF5000FF7D5814270474FF07D
:10461000807C1CEB400F38BF1CEB410F01D2814264
:10462000704710B500F089F8922449004FF000500F
:104630004FF08051FFF796BE4FF47F0C1CEAD0126A
:104640001EBF1CEAD11392EA0C0F93EA0C0F00F084
:10465000478090EA010F48BF42F480724FF0004C4F
:104660004CEA00204CEA012102EB0302A0FB0113FB
:10467000A2F50002002918BF43F001035B0028BF28
:104680004FEA330342EB22425FEA132C4CEBC25059
:104690002EBFBCEB436FB2F57C0F70474FEA036C43
:1046A000BCF1004F08BF20F00100B2F57C0F38BF0D
:1046B00070470BD582F0FF0212F5803FC8BF7047EC
:1046C00000F1C040D8BF00F00040704700F5000C7A
:1046D0005FEA4C0C48BF7047B0F1C04000F073B8BF
:1046E00090EA010F0CEAD11348BF42F48072624590
:1046F00038BF634504D280EA010000F000407047F3
:1047000010B500F01AF800BF8900013E00F007B8AC
:1047100000F009B85FEA410C5FEA1C6C08D080EA3F
:10472000010000F050B85FEA400C5FEA1C6CF6D163
:104730004FF00040A0F5800070470EF1020E2EF001
:10474000030E5EF8044B244204D44FEA4102B2F156
:104750007F4F11D84FEA4003B3F17F4F0CD80ED1F1
:104760004FEAD07CB2F17F4F0CEB4C0C0CF1020CF9
:1047700008BF4CEBD17C04E04FF0080C01E04FEA9D
:10478000D17C0CEB4C0324FA03F404F00704B4F1DD
:10479000040C06D20EEB840CBDE810404CF0010C6A
:1047A0006047DFE80CF0070802024FF00040A0F578
:1047B000800010BD0846420018BFD2F1807288BF49
:1047C00000F0004010BDFF2141EAD050C005704705
:1047D00051EA000C00F113801CF5000F58BFBCF526
:1047E000000F01D48142704707D711F5000F58BF61
:1047F00010F5000F15D481427047894270471CF5AF
:10480000000F04D5BCF5000FF7D5884270474FF074
:10481000807C1CEB410F38BF1CEB400F01D288425B
:10482000704780EA010081EA000180EA0100FFF799
:10483000F8BE80F0004090EA010F7FF532AD81F0C4
:10484000004100F008B8000090EA010F48BF81F075
:1048500000413FF526AD421A04D882F00042A0EB99
:10486000020011444FEAD0524FF07F4C1CEA410F36
:10487000A2EBD15318BF9CEA026F4AD04FF0004C14
:104880004CEA00204CEA012121FA03FCB0EB0C0CAD
:104890000FD412F0FE0F36D05FEA4C001DD5001287
:1048A00040EBC25038BF70471CF03F0F18BF704735
:1048B0000BE0A2F101025FEA1C2040EBC25038BFBE
:1048C00070471CF07F0F18BF7047C3F12003994059
:1048D00014BF401E20F00100704780084FEA1223E9
:1048E00008BF7047B0FA80FCA2EB0C02CCF1280C98
:1048F00060FA0CF093EA122F04BF00EBC25070472D
:104900004FEAC3707047130A5FEADC1008BF7047B4
:10491000F6E79CEA026F04D010EA5C0F08BF0020A3
:10492000704710B5FFF709FF40DFF63E81F0004009
:1049300070470CF00F03092B08BF082000F07F80A0
:104940000A2B0BD0082B18BF704708BF1CF0400F74
:104950000AD04FF000004FF0000170471CF0400FEC
:1049600018BF4FF0004070471CF0100F08D020F027
:10497000704300F07F4242EAD3014FEA4370704730
:1049800000F0604021F07F4242EA000201F07F40E7
:1049900040EA727070474FF0FF0C4CF4E06C1CEA78
:1049A00011531CBF9CEA030C9445C2BFDA4201EBD1
:1049B00002517047002B0DD0BCF1000F0FD0002A20
:1049C00001F00041A4BF41F0E04141F07F614FF0B0
:1049D0000000704701F000414FF00000704750EABE
:1049E00001334FF09B0C18BF4CF0806C7EF4E6AEA8
:1049F00070474FF0FF0212EAD0521CBF92F0FF0343
:104A00008B42C2BFD14200EBC1507047002A0AD08E
:104A1000002B0BD0002900F00040A4BF40F0FE4066
:104A200040F40000704700F00040704743024FF030
:104A30000B0C18BF4CF0806C7FF48EAC70471CF4EC
:104A4000801F11D01CF4E02F03D06FEACC31490055
:104A500070474FF04050EFF3008222F0704242EA7C
:104A6000000282F3008870474FF00000704700009A
:104A7000000000000000010203040607080900000E
:104A8000000000000000F03F000000000000F83FC0
:104A900000000000000000000000004003B8E23FFA
:104AA000000000000000000006D0CF43EBFD4C3EAC
:104AB000033333333333E33FFFAB6FDBB66DDB3FA1
:104AC0004D268F515555D53F01411DA96074D13FE9
:104AD00065DBC9934A86CD3FEF4E454A287ECA3FE3
:104AE0003E5555555555C53F93BDBE166CC166BF65
:104AF0002CDE25AF6A56113FF16BD2C541BDBBBE5E
:104B0000D0A4BE726937663E0000000000000000BD
:104B1000304B0008000000201001000028010008B0
:104B2000404C000810010020280800004401000843
:104B30000000000000000000000000000000000075
:104B400000000000050000000000284300000242B1
:104B5000008054448FC2F53C6F12833B0000A0409C
:104B6000000000000000000000000000C3F5484005
:104B700031082C3DB4C8D63F31082C3DB4C8D63FCF
:104B80000000000000000000640000000AD7A33C01
:104B90009A99993F0000803F0000000000004843C0
:104BA000F640D244000000000000000000000000B9
:104BB00000000000000000000000000000000000F5
:104BC00000000000000000000000000000000000E5
:104BD00000000000000000000000000000000000D5
:104BE00000000000000000000000000000000000C5
:104BF000000000001F015A45712D5745CDD8614571
:104C000029A8594552B05E4529D4C7446656C044C8
:104C1000667E04453DF2B144D72BD844FED4783F9C
:104C2000B4C8763FDF4F9D3F1D5A643FC520803F8B
:104C30000100000010000000000000000024F4004B
:04000005080000ED02
:00000001FF
